:020000000A28CC
:10000800FE00030EF0000A08F100DB280B28FB01B4
:100018008313203084002D30C62283012429FF0059
:1000280000308A007F0882071828DC299E2A8E2A39
:10003800BA2AAE2A4B2AF701F31F232824282B2893
:10004800F209F309F20A0319F30AF701F70AF51F8F
:100058002E282F283828F409F509F40A0319F50A77
:100068000130FF007F08F706F801F90172087304F0
:1000780003193F2840287728F601F60A4E28013050
:100088000310F20DF30DFF3E031D44280130FF005D
:100098007F08F607F31F5128522843280130031020
:1000A800F80DF90DFF3E031D532873087502031D53
:1000B8005F2872087402031C622863286A28720881
:1000C800F4027308031CF503F502781401300310D9
:1000D800F30CF20CFF3E031D6B280130F602031DE2
:1000E800762877285228770803197B287C288128C6
:1000F800F809F909F80A0319F90A7908F3007808E0
:10010800F2000800F601F60A0330F3008312031325
:10011800050801390422003A031D93289428D82899
:100128000230F30083120313050CF500750C013936
:100138000422003A031DA128A228D8280430F3007D
:1001480083120313050C01390422003A031DAD285C
:10015800AE28D8280530F30083120313050CF500E8
:10016800F50C750C01390422003A031DBC28BD2882
:10017800D8280630F30083120313050E0139042230
:10018800003A031DC828C928D8280130F300831273
:100198000313050EF500750C01390422003A031DFE
:1001A800D628D728D828F6017608FB0008008B1C2B
:1001B800DE28DF28EE288B10013083120313A500F8
:1001C8002C30A4000130AB070318AC0A0030AC0790
:1001D80087171D29831203130C1CF328F4281D29E3
:1001E8000C10200821040319FA28FB2801290130E2
:1001F800A0020030031CA103A10222082304031952
:10020800062907290D290130A2020030031CA30387
:10021800A3022408250403191229132919290130D6
:10022800A4020030031CA503A502F3308F007F3021
:100238008E0071088A00700E8300FE0E7E0E090083
:100248002B22093083120313B8001E30B700E430A4
:10025800B600B60B2D29B70B2D29B80B2D298620F2
:1002680088218312031324082504031D3C293D29F2
:1002780033292B082C0403194229432933298713CE
:1002880000302C02C93003192B02031C4C294D29BC
:100298004F299E2250298E2283120313AB01AC01F1
:1002A80033290A2883120313B2000A30F2000030FF
:1002B800F3003208AD00AE012D08F4002E08F50059
:1002C8001F20720883120313B300F630F2003308BC
:1002D8007922831203133207B1002A087A06031918
:1002E800762977297F293108AD00AE012D08AF00A6
:1002F8002E08B00086293308AD00AE012D08AF00E6
:100308002E08B0002F0808008312031320082104C8
:1003180003198F2990299129B2290A30A0000030A9
:10032800A1000130FF007F08AA0706302A02031C3B
:100338009E299F29A029AA01B321013E8400632296
:1003480083120313B4002A080B3E84006322B5000D
:100358000708803935048700340886000800023011
:10036800831203132A020318BA29BB29BF29FA01E9
:1003780026085621DB2904302A020318C429C52976
:10038800CA290230FA0027085621DB2904302A0638
:10039800031DCF29D029D2292808DB2905302A06B0
:1003A800031DD729D829DA292908DB2900300800B4
:1003B8008312031327082606031DE329E429E529E8
:1003C800032A2708803AF2002608803AF202031826
:1003D800EE29EF29F3290130FF007F08A807260836
:1003E800803AF2002708803AF2020318FC29FD2916
:1003F800012A0130FF007F08A907A701A60108000C
:10040800F4007408031D092A0A2A0F2A740803191C
:100418000E2A0F2A112A00302A2A7B03031D152AC7
:10042800162A1E2A003083120313A3006430A20088
:1004380001302A2A83120313220823040319252AC8
:10044800262A272A1C2A730813201C2A0800FF3092
:100458008316031385000130860087018312031376
:10046800860187019001901010149F0183160313D1
:100478001F08F03906389F00811301130B160C145E
:100488000B178B1783120313AB01AC0108008312FF
:1004980003132608803A7F3E0318532A542A622AF7
:1004A8002708803A7F3E031C5A2A5B2A5C2A622A64
:1004B8002808F2002908A8007208A90008000230DC
:1004C8008A000408840A820700347E340C34B63467
:1004D8009E34CC34DA34FA340E34FE349E343E344E
:1004E8003D343B3437342F341F34F400F301741C8B
:1004F8007E2A7F2A832A7208FF007F08F3070310E9
:10050800F20D0310F40C7408031D8B2A8C2A7B2A25
:10051800730808000130FF007F0883120313A60741
:100528002608803A1C3E031C9A2A9B2A9D2A63307F
:10053800A60008000130FF007F0883120313A707F5
:100548002708803A1C3E031CAA2AAB2AAD2A63302E
:10055800A7000800FF30FF007F0883120313A707D6
:10056800A71FB72AB82AB92AA7010800FF30FF0039
:100578007F0883120313A607A61FC32AC42AC52A05
:10058800A601080064008001840A040603190034E7
:040598000406C72A64
:02400E003A3F37
:00000001FF
