:020000000A28CC
:10000800FE00030EF0000A08F10013290B28FB017B
:1000180083120313AC01AD01AE01AF01B001B10110
:10002800B201B301B4018301392AFF0000308A000C
:100038007F0882071E288F295C2A4C2A782A6C2A76
:10004800F629F701F31F29282A283128F209F3098C
:10005800F20A0319F30AF701F70AF51F34283528BD
:100068003E28F409F509F40A0319F50A0130FF00DE
:100078007F08F706F801F901720873040319452887
:1000880046287D28F601F60A542801300310F20D9F
:10009800F30DFF3E031D4A280130FF007F08F607D5
:1000A800F31F57285828492801300310F80DF90D77
:1000B800FF3E031D592873087502031D6528720841
:1000C8007402031C6828692870287208F4027308EF
:1000D800031CF503F502781401300310F30CF20C3D
:1000E800FF3E031D71280130F602031D7C287D2880
:1000F800582877080319812882288728F809F909D8
:10010800F80A0319F90A7908F3007808F2000800D8
:10011800F601F60A0230F3008312031305080139C9
:10012800B721003A031D99289A28DE280330F300E6
:1001380083120313050CF500750C0139B721003A39
:10014800031DA728A828DE280430F3008312031310
:10015800050C0139B721003A031DB328B428DE285D
:100168000530F30083120313050CF500F50C750C2C
:100178000139B721003A031DC228C328DE280630FA
:10018800F30083120313050E0139B721003A031D4A
:10019800CE28CF28DE280130F30083120313050E82
:1001A800F500750C0139B721003A031DDC28DD285C
:1001B800DE28F6017608FB00080083120313A50069
:1001C8000A30F2000030F3002508A000A101200841
:1001D800F4002108F5002520720883120313A600F5
:1001E800F630F20026082422831203132507A40000
:1001F80030087A060319012902290A292408A000CF
:10020800A1012008A2002108A30011292608A000A6
:10021800A1012008A2002108A300220808008312D7
:1002280003130C1C1829192936290C10310832041B
:1002380003191F29202926290130B1020030031C87
:10024800B203B2023308340403192B292C293229AA
:100258000130B3020030031CB403B402F3308F0042
:100268007F308E0071088A00700E8300FE0E7E0EAD
:10027800090083120313310832040319442945295C
:1002880046296529F430B1000130B2000130FF0081
:100298007F08B00706303002031C5329542955291A
:1002A800B0016621013E84000E2283120313A700C9
:1002B80030080B3E84000E22A80028088700270873
:1002C80086000800023083120313300203186D29D8
:1002D8006E297229FA012C08E1208E290430300297
:1002E8000318772978297D290230FA002D08E120A2
:1002F8008E2904303006031D8229832985292E087A
:100308008E2905303006031D8A298B298D292F084F
:100318008E2900300800831203132D082C06031DB4
:10032800962997299829B6292D08803AF2002C0891
:10033800803AF2020318A129A229A6290130FF0058
:100348007F08AE072C08803AF2002D08803AF202A6
:100358000318AF29B029B4290130FF007F08AF077F
:10036800AD01AC010800F4007408031DBC29BD29C7
:10037800C22974080319C129C229C4290030DD29FA
:100388007B03031DC829C929D1290030831203130F
:10039800B4006430B3000130DD298312031333083D
:1003A80034040319D829D929DA29CF29730819203F
:1003B800CF290800FF3083160313850086018701C3
:1003C80083120313860187019001901010149F0176
:1003D800831603131F08F03906389F000C140B17F7
:1003E8008B170800831203132C08803A7F3E0318EA
:1003F800FE29FF290D2A2D08803A7F3E031C052A75
:10040800062A072A0D2A2E08F2002F08AE007208C5
:10041800AF00080002308A000408840A820700340A
:100428003F3406345B344F3466346D347D340734DE
:100438007F344F343E343D343B3437342F341F340B
:10044800F400F301741C292A2A2A2E2A7208FF00B4
:100458007F08F3070310F20D0310F40C7408031D52
:10046800362A372A262A73080800DE210930831223
:100478000313AB001E30AA00E430A900A90B422ADE
:10048800AA0B422AAB0B422A8C203D21482A0A2873
:100498000130FF007F0883120313AD072D08803A4F
:1004A8001C3E031C582A592A5B2A6330AD000800F9
:1004B8000130FF007F0883120313AC072C08803A31
:1004C8001C3E031C682A692A6B2A6330AC000800AA
:1004D800FF30FF007F0883120313AD07AD1F752A95
:1004E800762A772AAD010800FF30FF007F088312C3
:1004F8000313AC07AC1F812A822A832AAC010800A7
:02400E003A3F37
:00000001FF
