:020000000A28CC
:10000800FE00030EF0000A08F10013290B28FB017B
:1000180083120313AA01AB01AC01AD01AE01AF011C
:10002800B001B101B2018301352AFF0000308A0016
:100038007F0882071E286629582A482A742A682AAF
:10004800F229F701F31F29282A283128F209F30990
:10005800F20A0319F30AF701F70AF51F34283528BD
:100068003E28F409F509F40A0319F50A0130FF00DE
:100078007F08F706F801F901720873040319452887
:1000880046287D28F601F60A542801300310F20D9F
:10009800F30DFF3E031D4A280130FF007F08F607D5
:1000A800F31F57285828492801300310F80DF90D77
:1000B800FF3E031D592873087502031D6528720841
:1000C8007402031C6828692870287208F4027308EF
:1000D800031CF503F502781401300310F30CF20C3D
:1000E800FF3E031D71280130F602031D7C287D2880
:1000F800582877080319812882288728F809F909D8
:10010800F80A0319F90A7908F3007808F2000800D8
:10011800F601F60A0230F3008312031305080139C9
:100128008E21003A031D99289A28DE280330F3000F
:1001380083120313050CF500750C01398E21003A62
:10014800031DA728A828DE280430F3008312031310
:10015800050C01398E21003A031DB328B428DE2886
:100168000530F30083120313050CF500F50C750C2C
:1001780001398E21003A031DC228C328DE28063023
:10018800F30083120313050E01398E21003A031D73
:10019800CE28CF28DE280130F30083120313050E82
:1001A800F500750C01398E21003A031DDC28DD2885
:1001B800DE28F6017608FB00080083120313A50069
:1001C8000A30F2000030F3002508A000A101200841
:1001D800F4002108F5002520720883120313A600F5
:1001E800F630F20026082022831203132507A40004
:1001F8002E087A060319012902290A292408A000D1
:10020800A1012008A2002108A30011292608A000A6
:10021800A1012008A2002108A300220808008312D7
:1002280003130C1C1829192936290C102F0830041F
:1002380003191F29202926290130AF020030031C89
:10024800B003B0023108320403192B292C293229B2
:100258000130B1020030031CB203B202F3308F0048
:100268007F308E0071088A00700E8300FE0E7E0EAD
:1002780009000230831203132E020318442945296A
:100288004929FA012A08E120652904302E020318B9
:100298004E294F2954290230FA002B08E1206529FC
:1002A80004302E06031D59295A295C292C08652972
:1002B80005302E06031D6129622964292D08652948
:1002C80000300800831203132B082A06031D6D292A
:1002D8006E296F298D292B08803AF2002A08803A66
:1002E800F2020318782979297D290130FF007F0857
:1002F800AC072A08803AF2002B08803AF202031869
:10030800862987298B290130FF007F08AD07AB01BB
:10031800AA010800F4007408031D93299429992957
:1003280074080319982999299B290030B4297B035B
:10033800031D9F29A029A829003083120313B200A6
:100348006430B1000130B429831203133108320438
:100358000319AF29B029B129A62973081920A6299C
:100368000800831203132F0830040319BC29BD2980
:10037800BE29D9296430AF000030B0000130FF0039
:100388007F08AE0706302E02031CCB29CC29CD29C5
:10039800AE013D21013E84000A2283120313860028
:1003A8002E080B3E84000A2287000800FF308316BF
:1003B80003138500860187018312031386018701D1
:1003C8009001901010149F01831603131F08F03931
:1003D80006389F000C140B178B17080083120313A1
:1003E8002A08803A7F3E0318FA29FB29092A2B0894
:1003F800803A7F3E031C012A022A032A092A2C0874
:10040800F2002D08AC007208AD00080002308A0026
:100418000408840A820700343F3406345B344F34BE
:1004280066346D347D3407347F344F343E343D3484
:100438003B3437342F341F34F400F301741C252A5D
:10044800262A2A2A7208FF007F08F3070310F20DF4
:100458000310F40C7408031D322A332A222A730865
:100468000800DA21093083120313A9001E30A800FE
:10047800E430A700A70B3E2AA80B3E2AA90B3E2A68
:100488008C20B521442A0A280130FF007F088312F6
:100498000313AB072B08803A1C3E031C542A552A29
:1004A800572A6330AB0008000130FF007F08831231
:1004B8000313AA072A08803A1C3E031C642A652AEB
:1004C800672A6330AA000800FF30FF007F08831204
:1004D8000313AB07AB1F712A722A732AAB010800FA
:1004E800FF30FF007F0883120313AA07AA1F7D2A83
:0804F8007E2A7F2AAA010800F8
:02400E003A3F37
:00000001FF
