:020000000A28CC
:10000800FE00030EF0000A08F1001F280B288313D6
:100018002030840036302F248301B829FF000030B7
:100028008A007F0882071728342BE02BCA2B1D2C47
:100038000B2C7D2B372C8B1C2228232838288B103F
:10004800013083120313A5002C30A40026082704CE
:10005800031D2F2830288A280130B3070318B40A53
:100068000030B40787178A28831203130C1C3D2815
:100078003E288A280C102008210403194428452802
:100088004B280130A0020030031CA103A102220862
:10009800230403195028512857280130A2020030A0
:1000A800031CA303A3022408250403195C285D2864
:1000B80063280130A4020030031CA503A50226080A
:1000C80027040319682869286F280130A602003020
:1000D800031CA703A70228082904031974287528F4
:1000E8007B280130A8020030031CA903A902F330C1
:1000F8008F007F308E002F03031D832884288A28D1
:100108000130B1070318B20A0030B20771088A003B
:10011800700E8300FE0E7E0E0900F701F31F95286E
:1001280096289D28F209F309F20A0319F30AF70140
:10013800F70AF51FA028A128AA28F409F509F40A46
:100148000319F50A0130FF007F08F706F801F901E5
:10015800720873040319B128B228E928F601F60ACF
:10016800C02801300310F20DF30DFF3E031DB62821
:100178000130FF007F08F607F31FC328C428B528FD
:1001880001300310F80DF90DFF3E031DC528730853
:100198007502031DD12872087402031CD428D528BF
:1001A800DC287208F4027308031CF503F5027814BE
:1001B80001300310F30CF20CFF3E031DDD28013063
:1001C800F602031DE828E928C42877080319ED2852
:1001D800EE28F328F809F909F80A0319F90A790841
:1001E800F3007808F2000800FB01FB0A0330F60070
:1001F80083120313050801390B23003A031D05294F
:10020800062950290230F60083120313050CFA0060
:100218007A0C01390B23003A031D1329142950299C
:100228000430F60083120313050C01390B23003A3E
:10023800031D1F29202950290530F60083120313B6
:10024800050CFA00FA0C7A0C01390B23003A031D4D
:100258002E292F2950290630F500B830F6000B302A
:10026800F7000730F80083120313050E0139462200
:10027800003A031D4029412950290130F600831214
:100288000313050EFA007A0C01390B23003A031DFB
:100298004E294F295029FB017B0883120313AF0015
:1002A8002F08031D582959295B29B101B2010800FB
:1002B800831203178D013F30FF007F088316031751
:1002C8008C050C14831203170C0883120313AA005D
:1002D8000130831203178D003F30FF007F0883161B
:1002E80003178C050C14831203170C0883120313CD
:1002F800AB000230831203178D003F30FF007F08E8
:10030800831603178C050C14831203170C08831229
:100318000313AC000330831203178D003F30FF0036
:100328007F08831603178C050C14831203170C0817
:1003380083120313AD002A0A031DA329A429A529A2
:10034800AA012B0A031DA929AA29AB29AA012C0A4B
:10035800031DAF29B029B129AC012D0A031DB52908
:10036800B629B729AD0108005D23093083120313AC
:10037800C1001E30C000E430BF00BF0BC129C00B54
:10038800C129C10BC12983120313AA01AB015C2146
:1003980083120313B501F820B7228312031324082C
:1003A8002504031DD829D929F4293308340403194D
:1003B800DE29DF29F429871300303402C9300319F4
:1003C8003302031CE829E929EB29E023EC29CA2395
:1003D80083120313B301B4010B30A700B830A60091
:1003E80035080319F829F929CF2928082904031DF4
:1003F800FE29FF29CF29B5019B23CF290A28F4001C
:100408007408831203178D003F30FF007F0883169E
:1004180003178C050C14831203170C08F3007308D8
:100428007206031D182A192A1A2A452A8316031741
:100438008C181F2A202A1A2A7408831203178D0081
:1004480072088C003F30FF007F08831603178C0565
:100458008312031303108B1F322A332A342A0314FE
:100468008B13831603170C1555308D00AA308D0099
:100478008C140C1183120313031C432A442A452AA3
:100488008B170800F9007908031D4B2A4C2A512ABA
:1004980079080319502A512A532A0030842A7908E6
:1004A80083120313B0002F03031D5B2A5C2A7A2AE8
:1004B800760877040319612A622A722A32087702B9
:1004C800031D682A3108760203186B2A6C2A722ADF
:1004D8007808122083120313B101B201003083128D
:1004E8000313A3006430A2000130842A22082304E5
:1004F80003197F2A802A812A782A75081220722AED
:10050800080083120313BB000A30F2000030F30026
:100518003B08B600B7013608F4003708F50091200B
:10052800720883120313BC00F630F2003C08F6236D
:10053800831203133B07BA002E087A060319A52A6B
:10054800A62AAE2A3A08B600B7013608B800370816
:10055800B900B52A3C08B600B7013608B800370814
:10056800B90038080800831203132008210403196E
:10057800BE2ABF2AC02AE12A0230A0000030A1000A
:100588000130FF007F08AE0706302E02031CCD2A7B
:10059800CE2ACF2AAE01E222013E8400B423831280
:1005A8000313BD002E080B3E8400B423BE000708C9
:1005B80080393E0487003D08860008000230831217
:1005C80003132E020318E92AEA2AEE2AFA012A0856
:1005D80085220A2B04302E020318F32AF42AF92A5A
:1005E8000230FA002B0885220A2B04302E06031D40
:1005F800FE2AFF2A012B2C080A2B05302E06031D84
:10060800062B072B092B2D080A2B00300800F700B2
:100618007708031D102B112B162B77080319152BA0
:10062800162B182B0030332B770883120313B000D6
:100638002F03031D202B212B292B0030831203139A
:10064800A3006430A2000130332B220823040319CD
:100658002E2B2F2B302B272B76081220212B08002E
:10066800831203132B082A06031D3B2B3C2B3D2B1F
:100678005C2B2B08803AF5002A08803AF50203180B
:10068800462B472B4B2B0130FF007F08AC072A086D
:10069800803AF5002B08803AF5020318542B552BA5
:1006A800592B0130FF007F08AD07AB01AA019B233E
:1006B8000800FF3083160313850001308600870188
:1006C80083120313860187019001901010149F0173
:1006D800831603131F08F03906389F00811301138E
:1006E8000B160C140B178B1783120313B301B401E9
:1006F8000800831203132A08803A7F3E0318852BCB
:10070800862B9A2B2B08803A7F3E031C8C2B8D2B33
:100718008E2B9A2B2C08F2002D08AC007208AD0025
:10072800B501B50A1330A9008830A8000800831263
:1007380003132A08F20000300322831203132B0844
:10074800F20001300322831203132C08F200023056
:100758000322831203132D08F2000330032208003A
:1007680003308A000408840A820700347E340C347B
:10077800B6349E34CC34DA34FA340E34FE34CE3403
:100788003E343D343B3437342F341F340130FF00BE
:100798007F0883120313AA072A08803A1C3E031C09
:1007A800D62BD72BD92B6330AA00B501B50A133045
:1007B800A9008830A80008000130FF007F088312D4
:1007C8000313AB072B08803A1C3E031CEC2BED2BC4
:1007D800EF2B6330AB00B501B50A1330A9008830A0
:1007E800A8000800F400F301741CFB2BFC2B002C60
:1007F8007208FF007F08F3070310F20D0310F40CD2
:100808007408031D082C092CF82B73080800FF3006
:10081800FF007F0883120313AB07AB1F142C152CA2
:10082800162CAB01B501B50A1330A9008830A80011
:100838000800FF30FF007F0883120313AA07AA1FCE
:10084800262C272C282CAA01B501B50A1330A9009B
:100858008830A800080064008001840A040603198F
:1008680000340406302C83120313AD01AC01AB0134
:06087800AA019B23080009
:02400E003A3F37
:00000001FF
